:1000000094C00000ADC00000ABC00000A9C000005B
:10001000A7C00000A5C00000A3C00000A1C0000050
:100020009FC000009DC000009BC00000DCC300001A
:1000300097C0000095C0000093C0000091C0000070
:100040008FC000008DC000008BC0000089C0000080
:1000500087C0000085C0000083C000004BC10000C5
:100060007FC000007DC000007BC0000079C00000A0
:1000700077C0000075C0000073C0000071C00000B0
:100080006FC000006DC000006BC0000069C00000C0
:1000900067C0000065C0000005010902A101090157
:1000A000A100950375010509190129031500250112
:1000B00081029501750581017508950205010930D8
:1000C00009311581257F8106C0C012011001000091
:1000D0000008EB0341200000010200010902220098
:1000E000010100C0640904000001030102000921AC
:1000F000110100012232000705810308000A0403F0
:1001000009041003410072006400750069006E006C
:100110006F00000014034D006F0075007300650050
:10012000200030002E003100000011241FBECFEF50
:10013000D2E0DEBFCDBF11E0A0E0B1E0EAE9FFE030
:1001400002C005900D92AE30B107D9F711E0AEE0D4
:10015000B1E001C01D92A33AB107E1F727D01BC758
:100160004FCFCF93DF9384B7877F84BF28E10FB64B
:10017000F89420936000109260000FBE87E690E034
:100180009093CD008093CC0086E08093CA001092BB
:10019000C800C9ECD0E02883539A5A9A19D384E056
:1001A00085BD88E98883DF91CF910895CF92DF9252
:1001B000EF92FF920F931F93DF93CF9300D00F9294
:1001C000CDB7DEB7CEDF2FB7F89484E191E09093FE
:1001D00095018093940190939701809396012FBF8E
:1001E00078947E010894E11CF11C8E010C5F1F4F76
:1001F0006C019FB7F894809198019FBF843008F4F8
:1002000040C0D701E0919601F09197019191F09350
:100210009701E093960121E0E439F20721F4C092BE
:100220009601D09297012FB7F89480919801815050
:10023000809398012FBF9D93A017B10719F7809164
:100240009601909197010196909397018093960162
:1002500021E08439920721F4C0929601D09297014F
:100260009FB7F894809198018150809398019FBF27
:10027000898180930E018A8180930F018B81809305
:10028000100180E091E0B1D54ED4B3CF0895089528
:1002900080E091E082D5E2EEF0E0808184608083AE
:1002A000089580E091E051C480910B0190910C0180
:1002B000009729F0019790930C0180930B0108950A
:1002C0000F931F93CF93DF93E801822F932FDC01CD
:1002D000EEE0F1E083E001900D928150E1F783E0E0
:1002E00090E09983888380E0DF91CF911F910F91F7
:1002F000089508951F920F920FB60F9211242F9315
:100300008F939F93EF93FF938091CE009EB3943091
:10031000F9F4E0919401F09195018083E0919401CA
:10032000F0919501CF0101969093950180939401EE
:1003300021E08439920721F484E191E09283818362
:100340009FB7F894809198018F5F809398019FBF29
:10035000FF91EF919F918F912F910F900FBE0F9072
:100360001F901895933089F0943028F4913059F10A
:10037000923071F505C09132E1F0923249F51EC01C
:1003800022E230E0ECEDF0E027C0813049F081302E
:1003900018F08230E9F408C0EEEFF0E0249107C0D5
:1003A000E2E0F1E0249103C0E4E1F1E0249130E0E7
:1003B00013C029E030E0EEEEF0E00EC022E330E0C2
:1003C000E8E9F0E009C022E130E0EAECF0E004C046
:1003D00020E030E0E0E0F0E0DA011196FC93EE93EB
:1003E000C901089528E030E040E003C04F5F220FCC
:1003F000331F28173907D0F3842F8295807F089503
:100400008093E900EBEEF0E0808181608083EDEE87
:10041000F0E010826093EC0040838091EE00881F32
:100420008827881F08951092F40080E08093E900E7
:100430001092F0001092E8001092ED009091EB0005
:100440009E7F9093EB008F5F853081F708958091B8
:100450009B0187FF11C003C08EB38823B1F0809148
:10046000E80082FFF9CF8091E8008B778093E80065
:1004700008958EB3882349F08091E80080FFF9CF7A
:100480008091E8008E778093E800089584E690914B
:10049000EC0090FF05C09091E80090FF05C01BC0E4
:1004A0009091E80092FD17C09EB39923B1F09EB3DE
:1004B0009530A9F09091EB0095FD13C09091E1006B
:1004C00092FFE5CF9091E1009B7F9093E10088231C
:1004D00051F08150DCCF80E0089582E0089583E000
:1004E000089581E0089584E00895AF92BF92DF926D
:1004F000EF92FF920F931F93DF93CF930F92CDB79D
:10050000DEB7082F5B017A019983C0DFD82E99816D
:10051000882331F5192F1CC08091E80085FD10C09B
:100520008091E8008E778093E800E114F10421F0D7
:10053000F7010995813081F0A9DF882349F00FC0C8
:10054000F80181918F018093F1000894A108B1080E
:10055000A114B10409F704C075E0D72E01C0D82E4C
:100560008D2D0F90CF91DF911F910F91FF90EF9004
:10057000DF90BF90AF900895282F392FF901809117
:10058000A1019091A2018617970718F4BC0190E091
:1005900032C061157105D9F78091E8008E7780939C
:1005A000E800F5CF8091E80083FD37C08091E80036
:1005B00082FD2DC08EB38823A1F18EB3853079F1F1
:1005C0008091E80080FF17C08091F20006C09191F1
:1005D0009093F100615070408F5F6115710511F0CB
:1005E0008830A8F391E0883009F090E08091E8002D
:1005F0008E778093E80061157105A1F6992391F635
:1006000006C08EB3882369F08EB3853061F0809187
:10061000E80082FFF6CF80E0089581E0089583E04E
:10062000089582E0089583E00895282F392FC901A5
:100630002091A1013091A2012617370718F4B901C2
:1006400030E034C061157105D9F72091E8002E77AC
:100650002093E800F5CF2091E80023FD39C02091D8
:10066000E80022FD2FC02EB32223B1F12EB3253096
:1006700089F12091E80020FF19C02091F20008C004
:10068000FC010196E491E093F100615070402F5F0E
:100690006115710511F0283098F331E0283009F028
:1006A00030E02091E8002E772093E8006115710575
:1006B00091F6332381F606C08EB3882369F08EB39A
:1006C000853061F08091E80082FFF6CF80E00895E8
:1006D00081E0089583E0089582E0089583E008951D
:1006E0006115710519F51DC02091E80023FD2EC08C
:1006F0002EB3222379F12EB3253051F12091E80059
:1007000022FFF2CFE82FF92F07C08091F1008193EB
:10071000CF016150704029F0CF012091F2002223D7
:10072000A1F72091E8002B772093E800611571056F
:10073000D9F606C08EB3882369F08EB3853061F098
:100740008091E80080FFF6CF80E0089581E0089571
:1007500083E0089582E0089583E008953ED040D07C
:100760001EBA1092990184E089BD89B5826089BD65
:1007700009B400FEFDCF8091D800982F9F77909309
:10078000D80080688093D800809163008E7F80932A
:1007900063008091D8008F7D8093D8008091E00025
:1007A0008E7F8093E0008091E1008E7F8093E10056
:1007B0008091E20081608093E2008091E100877F78
:1007C0008093E1008091E20088608093E2000895C8
:1007D000C5DF81E080939A0108951092E2000895A8
:1007E0001092E10008951F920F920FB60F921124FC
:1007F0002F933F934F935F936F937F938F939F9329
:10080000AF93BF93EF93FF938091E10080FF1BC0F4
:100810008091E20080FF17C08091E1008E7F80937D
:10082000E1008091E2008E7F8093E2008091E200FF
:1008300080618093E2008091D80080628093D8002C
:1008400019BC1EBA24DD8091E10084FF29C080918B
:10085000E20084FF25C084E089BD89B5826089BD3E
:1008600009B400FEFDCF8091D8008F7D8093D80021
:100870008091E1008F7E8093E1008091E2008F7E85
:100880008093E2008091E20081608093E200809199
:100890009901882311F084E001C081E08EBBF6DC71
:1008A0008091E10083FF22C08091E20083FF1EC09F
:1008B0008091E100877F8093E10082E08EBB1092FF
:1008C00099018091E1008E7F8093E1008091E200A8
:1008D0008E7F8093E2008091E20080618093E2004D
:1008E000A2DD80E060E042E08BDD1CD18091E10080
:1008F00082FF0AC08091E20082FF06C08091E10081
:100900008B7F8093E100D0DCFF91EF91BF91AF919D
:100910009F918F917F916F915F914F913F912F9117
:100920000F900FBE0F901F9018951F93DF93CF93DA
:1009300000D0CDB7DEB7EBE9F1E08091F100819313
:1009400081E0E33AF807C9F780919B0190919C01FF
:10095000953009F46BC0963040F4913061F19130DC
:1009600070F0933009F0C9C026C0983009F49BC0DC
:10097000993009F4AAC0963009F0BFC075C080381C
:1009800009F4BCC0823809F0B8C080919F0187701B
:100990008093E9009091EB001092E9008091E800CB
:1009A000877F8093E80081E095FF80E08093F100ED
:1009B0001092F10083C0882319F0823009F09DC0A5
:1009C0008F71823009F09AC080919D01882341F592
:1009D00020919F01277009F491C02093E900809134
:1009E000EB0080FF8BC080919C01833021F48091CB
:1009F000EB00806213C08091EB0080618093EB007C
:100A000081E090E002C0880F991F2A95E2F7809359
:100A1000EA001092EA008091EB0088608093EB007E
:100A20001092E9008091E800877F4BC0882309F08D
:100A300064C010919D018091E800877F8093E80059
:100A400006DD04C08EB3882309F458C08091E80005
:100A500080FFF8CF1F7711F083E001C082E08EBBEA
:100A600010681093E3004AC08058823008F045C0F7
:100A700080919D0190919E0160919F01AE014F5F19
:100A80005F4F70DCBC010097C9F18091E800877F5F
:100A90008093E80089819A81C8DD8091E8008B7796
:100AA0008093E8002BC0803841F58091E800877F73
:100AB0008093E800809199018093F1008091E80093
:100AC0008E778093E800C3DC19C08823B1F490913D
:100AD0009D01923098F48091E800877F8093E80030
:100AE00090939901B4DC80919901882311F084E0FE
:100AF00001C083E08EBBCCDB01C0D3DB8091E8007A
:100B000083FF0AC08091EB0080628093EB008091AC
:100B1000E800877F8093E8000F900F90CF91DF91DE
:100B20001F91089508951F938EB3882361F010914B
:100B3000E90017701092E9008091E80083FF01C07E
:100B4000F4DE1093E9001F9108956F927F928F92C7
:100B50009F92AF92BF92CF92DF92EF92FF920F934C
:100B60001F93DF93CF9300D00F92CDB7DEB77C01F8
:100B70006DB67EB68091E80083FFF8C0F7018081F2
:100B800090E020919F013091A0012817390709F0CA
:100B9000EDC080919C01833009F499C0843030F419
:100BA000813071F0823009F0E1C0C8C08A3009F4A8
:100BB000AEC08B3009F498C0893009F0D7C04CC062
:100BC00080919B01813A09F0D1C0CDB6DEB69DB6C9
:100BD0008D2C8091E800877F8093E8001B821A8229
:100BE00080919D0100919E018983F7014781C41A7C
:100BF000D1080FB6F894DEBE0FBECDBE0894C11C5E
:100C0000D11CBC2CAD2CC60160E070E050E0BCD122
:100C1000402F4150C701BE016F5F7F4F96018E018B
:100C20000E5F1F4F4DDBF701258136812115310500
:100C300029F04781C901B60150E09DD11092E90029
:100C40006A817B818B2D9A2D97DC8091E8008B77D0
:100C50008093E800940133C080919B01813209F0B8
:100C600085C0CDB6DEB6BDB6AD2C8091E800877FDD
:100C70008093E8000091A1011091A20190909D0144
:100C800080909E018DB79EB7801B910B0FB6F89494
:100C90009EBF0FBE8DBFCDB6DEB60894C11CD11C61
:100CA000C601B8011DDD482D4150C701692D9601CF
:100CB00020DB8091E8008E778093E8009501832FF8
:100CC000922F0FB6F8949EBF0FBE8DBF4FC080917C
:100CD0009B01813A09F04AC08091E800877F8093A8
:100CE000E800F70180853AC080919B01813209F0CC
:100CF0003DC08091E800877F8093E80090919D013E
:100D000081E0992309F480E0F70180872EC080916B
:100D10009B01813259F58091E800877F8093E8003C
:100D200080919D0190919E01807036E09695879507
:100D30003A95E1F7F7019287818717C080919B016F
:100D4000813AA1F48091E800877F8093E800F70161
:100D50008185928596958795969587958093F100E4
:100D60008091E8008E778093E80071DB0FB6F894ED
:100D70007EBE0FBE6DBE0F900F900F90CF91DF9192
:100D80001F910F91FF90EF90DF90CF90BF90AF90A9
:100D90009F908F907F906F9008950F931F93CF93A4
:100DA000DF93FC010896DC0185E0ED0119928A953C
:100DB000E9F781E0808784EF91E092878187228143
:100DC000338101818481882311F014E001C010E097
:100DD000C90108DB412F482B4260802F61EC10DBFA
:100DE000DF91CF911F910F9108954F925F926F9273
:100DF0007F928F929F92AF92BF92CF92DF92EF92AB
:100E0000FF920F931F93DF93CF9300D00F92CDB734
:100E1000DEB77C016DB67EB68EB3843009F085C036
:100E2000F70181818093E9008091E80085FF7DC012
:100E30005DB6472C4781CDB6DEB6C41AD1080FB6D1
:100E4000F894DEBE0FBECDBE0DB71EB70F5F1F4FAD
:100E5000B02E912E19821B821A82C80160E070E0C8
:100E600050E092D0C701BE016F5F7F4F40E0980114
:100E70008E010E5F1F4F24DA882EF701818592853F
:100E8000009759F081E090E02385348521153105E4
:100E900011F080E090E06C0102C0CC24DD24F70169
:100EA000058116810115110599F04A815B818B2D11
:100EB000992DB80153D0AA24A394009709F4AA2429
:100EC000F7014781C8016B2D792D50E054D001C046
:100ED000AA248A819B81009701F1882029F4AA2005
:100EE00019F4C114D104C9F0F70181859285948762
:100EF000838781818093E9008981882311F0809321
:100F0000F1006A817B818B2D992D40E050E0EDDA74
:100F10008091E8008E778093E8009201832F942DD2
:100F20000FB6F8949EBF0FBE8DBF0FB6F8947EBE6D
:100F30000FBE6DBE0F900F900F90CF91DF911F915C
:100F40000F91FF90EF90DF90CF90BF90AF909F9068
:100F50008F907F906F905F904F900895FB01DC0120
:100F600004C08D910190801921F441505040C8F780
:100F7000881B990B0895FB01DC0102C001900D92C2
:100F800041505040D8F70895DC0101C06D934150A5
:0A0F90005040E0F70895F894FFCFF9
:0E0F9A0000010800001101030000000000002B
:00000001FF
