:100000009EC00000B7C00000B5C00000B3C0000033
:10001000B1C00000AFC00000ADC00000ABC0000028
:10002000A9C00000A7C00000A5C000002BC50000AB
:10003000A1C000009FC000009DC000009BC0000048
:1000400099C0000097C0000095C0000093C0000058
:1000500091C000008FC000008DC0000063C100008F
:1000600089C0000087C0000085C0000083C0000078
:1000700081C000007FC000007DC000007BC0000088
:1000800079C0000077C0000075C0000073C0000098
:1000900071C000006FC0000005010902A101090143
:1000A000A100950375010509190129031500250112
:1000B00081029501750581017508950205010930D8
:1000C00009311581257F8106C0C012011001000091
:1000D0000008EB0341200000010200010902220098
:1000E000010100C0320904000001030102000921DE
:1000F000110100012232000705810308000A0403F0
:10010000090418034400650061006E0020004300EC
:1001100061006D00650072006100000020034C006A
:1001200055004600410020004D006F00750073002F
:1001300065002000440065006D006F000000112480
:100140001FBECFEFD2E0DEBFCDBF11E0A0E0B1E037
:10015000ECE2F0E102C005900D92AE30B107D9F7A4
:1001600011E0AEE0B1E001C01D92A63AB107E1F79F
:100170002DD05AC745CF9BB18095906389238BB909
:100180000895CF93DF9384B7877F84BF88E10FB64C
:10019000F89480936000109260000FBE1092C80027
:1001A000C9ECD0E0888386E08093CA00539A5A9ABB
:1001B00080E190E09093CD008093CC0056D484E011
:1001C00085BD88E98883DF91CF910895CF92DF9232
:1001D000EF92FF920F931F93DF93CF9300D00F9274
:1001E000CDB7DEB7CEDF2FB7F89484E191E09093DE
:1001F00095018093940190939701809396012FBF6E
:1002000078947E010894E11CF11C8E010C5F1F4F55
:100210006C019FB7F894809198019FBF843008F4D7
:1002200040C0D701E0919601F09197019191F09330
:100230009701E093960121E0E439F20721F4C0929E
:100240009601D09297012FB7F89480919801815030
:10025000809398012FBF9D93A017B10719F7809144
:100260009601909197010196909397018093960142
:1002700021E08439920721F4C0929601D09297012F
:100280009FB7F894809198018150809398019FBF07
:10029000898180930E018A8180930F018B818093E5
:1002A000100180E091E0E3D592D4B3CF80E163CF39
:1002B00080E261CF80E15FDF80E091E0B2D588230A
:1002C00011F480E258DF8091E20084608093E200C4
:1002D000089580E091E08EC480910B0190910C0113
:1002E000009729F0019790930C0180930B010895DA
:1002F0000F931F93CF93DF93E801822F932FDC019D
:10030000EEE0F1E083E001900D928150E1F783E0AF
:1003100090E09983888381E0DF91CF911F910F91C5
:10032000089508951F920F920FB60F9211242F93E4
:100330008F939F93EF93FF938091CE0090919D01B7
:100340009430F9F4E0919401F09195018083E0916B
:100350009401F0919501CF010196909395018093BE
:10036000940121E08439920721F484E191E09283A1
:1003700081839FB7F894809198018F5F8093980153
:100380009FBFFF91EF919F918F912F910F900FBE83
:100390000F901F901895933089F0943028F4913085
:1003A00049F1923061F505C09132D1F0923239F5C0
:1003B0001CC022E230E0ECEDF0E025C0813041F0DD
:1003C000813018F08230D9F406C0EEEFF0E005C0BD
:1003D000E2E0F1E002C0ECE1F1E0249130E013C092
:1003E00029E030E0EEEEF0E00EC022E330E0E8E994
:1003F000F0E009C022E130E0EAECF0E004C020E0E7
:1004000030E0E0E0F0E0DA011196FC93EE93C901F0
:1004100008951F93DF93CF9300D0CDB7DEB7EEE9F9
:10042000F1E08091F100819381E0E63AF807C9F7A5
:1004300080919E0120919F01253009F483C02630D0
:1004400040F4213099F1213070F0233009F0E5C0FB
:100450002DC0283009F4B2C0293009F4C5C02630B7
:1004600009F0DBC087C0803821F0823809F0D5C0A0
:1004700008C08091990190919A01992369F0826056
:100480000BC08091A2018093E9009091EB0081E084
:1004900095FF80E01092E9009091E800977F90939B
:1004A000E8008093F1001092F10093C0882319F0C6
:1004B000823009F0B2C090E08F719070009729F0FF
:1004C0008230910509F0AAC00BC08091A001813053
:1004D00009F0A4C0233009F080E080939A012CC079
:1004E0008091A001882341F52091A201277009F491
:1004F00095C02093E9008091EB0080FF1DC08091A2
:100500009F01833021F48091EB00806213C08091C1
:10051000EB0080618093EB0081E090E002C0880FE7
:10052000991F2A95E2F78093EA001092EA008091E1
:10053000EB0088608093EB001092E9008091E80066
:10054000877F4EC0882309F068C01091A001809178
:10055000E800877F8093E800B4D08091E80080FFB6
:100560006CC01F7719F083E080939D011068109391
:10057000E30054C08058823008F04FC08091A00141
:100580009091A1016091A201AE014F5F5F4F03DF27
:10059000BC01009709F442C08091E800877F8093F6
:1005A000E80089819A8186D18091E800982F9B7F0D
:1005B0009093E8008F778093E80030C0803869F529
:1005C0008091E800877F8093E80080919B01809371
:1005D000F1008091E800982F9E7F9093E8008F773C
:1005E0008093E8006ED01AC08823B9F49091A001DE
:1005F0009230A0F48091E800877F8093E800909388
:100600009B015FD080919B01882311F084E001C0A1
:1006100083E080939D014EDE01C05BDE8091E800A7
:1006200083FF11C08091EB0080628093EB0080918A
:10063000E800877F8093E80006C080919D018823B1
:1006400009F08BCFEBCF0F900F90CF91DF911F91DF
:10065000089528E030E040E003C04F5F220F331FD1
:1006600028173907D0F3842F8295807F08958093CF
:10067000E900EBEEF0E0808181608083EDEEF0E058
:1006800010826093EC0040838091EE00881F8827E1
:10069000881F08951092F40080E08093E900109282
:1006A000F0001092E8009091ED009D7F9093ED0096
:1006B0009091EB009E7F9093EB008F5F853069F700
:1006C000089580919E0187FF0EC004C080919D0116
:1006D0008823D9F08091E80082FFF8CF8091E8006C
:1006E000982F9B7F08C08091E80080FF0AC080910E
:1006F000E800982F9E7F9093E8008F778093E80022
:10070000089580919D01882371F7089584E6909162
:10071000EC0090FF05C09091E80090FF05C019C063
:100720009091E80092FD15C090919D01992399F058
:100730009091EB0095FD11C09091E10092FFE7CF01
:100740009091E1009B7F9093E100882341F08150DC
:10075000DECF80E0089582E0089581E0089583E08F
:100760000895AF92BF92DF92EF92FF920F931F9383
:10077000DF93CF930F92CDB7DEB7082F5B017A01DD
:100780009983C4DFD82E9981882351F5192F20C071
:100790008091E80085FD14C08091E800982F9E7F2D
:1007A0009093E8008F778093E800E114F10421F042
:1007B000F7010995813081F0A9DF882349F00FC046
:1007C000F80181918F018093F1000894A108B1088C
:1007D000A114B104E9F604C074E0D72E01C0D82EEC
:1007E0008D2D0F90CF91DF911F910F91FF90EF9082
:1007F000DF90BF90AF900895282F392FF901809195
:10080000A4019091A5018617970718F4BC0120E078
:100810003BC061157105D9F78091E800982F9E7F44
:100820009093E8008F778093E800F1CF8091E80003
:1008300083FD3AC08091E80082FD30C080919D0127
:100840008823A1F18091E80080FF1EC08091F20012
:1008500090E006C021912093F10061507040019614
:100860006115710519F088309105A0F321E08830F9
:10087000910509F020E08091E800982F9E7F9093E9
:10088000E8008F778093E8006115710579F62223DF
:1008900069F604C080919D01882351F08091E800A1
:1008A00082FFF8CF80E0089581E0089582E0089506
:1008B00082E00895282F392F8091A4019091A501FD
:1008C0008617970718F4BC0140E03EC0611571051A
:1008D000D9F78091E800982F9E7F9093E8008F775A
:1008E0008093E800F1CF8091E80083FD3DC08091C6
:1008F000E80082FD33C080919D018823B9F1809189
:10090000E80080FF21C08091F20090E009C0F90169
:100910002F5F3F4FE491E093F100615070400196EA
:100920006115710519F08830910588F341E0883030
:10093000910509F040E08091E800982F9E7F909308
:10094000E8008F778093E8006115710561F6442314
:1009500051F604C080919D01882351F08091E800F8
:1009600082FFF8CF80E0089581E0089582E0089545
:1009700082E008956115710529F51BC02091E800FA
:1009800023FD29C020919D01222339F12091E80007
:1009900022FFF4CFE82FF92F07C08091F100819357
:1009A000CF016150704029F0CF012091F200222345
:1009B000A1F72091E800322F3B7F3093E8002F779A
:1009C0002093E80061157105C9F68091E80080FF69
:1009D00008C080E0089581E0089582E0089582E0F3
:1009E000089580919D01882381F7F9CF45D047D0A4
:1009F00010929D0110929B0110929A011092990100
:100A000084E089BD89B5826089BD09B400FEFDCF4F
:100A10008091D800982F9F779093D800806880931A
:100A2000D800809163008E7F809363008091D8000E
:100A30008F7D8093D8008091E0008E7F8093E000CE
:100A40008091E1008E7F8093E1008091E2008160DF
:100A50008093E2008091E100877F8093E1008091A4
:100A6000E20088608093E2000895C0DF81E0809317
:100A70009C017894089508951092E20008951092D0
:100A8000E10008951F920F920FB60F9211242F9339
:100A90003F934F935F936F937F938F939F93AF9306
:100AA000BF93EF93FF938091E10080FF1CC0809182
:100AB000E20080FF18C08091E1008E7F8093E1000A
:100AC0008091E2008E7F8093E2008091E20080615D
:100AD0008093E2008091D80080628093D80019BC96
:100AE00010929D01E5DB8091E10084FF2AC0809196
:100AF000E20084FF26C084E089BD89B5826089BD9B
:100B000009B400FEFDCF8091D8008F7D8093D8007E
:100B10008091E1008F7E8093E1008091E2008F7EE2
:100B20008093E2008091E20081608093E2008091F6
:100B30009B01882311F084E001C081E080939D0136
:100B4000B5DB8091E10083FF23C08091E20083FF49
:100B50001FC08091E100877F8093E10082E0809355
:100B60009D0110929B018091E1008E7F8093E100B6
:100B70008091E2008E7F8093E2008091E2008061AC
:100B80008093E20087DD80E060E042E070DD73DFAB
:100B90008091E10082FF0AC08091E20082FF06C0DE
:100BA0008091E1008B7F8093E10096DBFF91EF91D4
:100BB000BF91AF919F918F917F916F915F914F9175
:100BC0003F912F910F900FBE0F901F9018951F937C
:100BD00080919D01882361F01091E90017701092B7
:100BE000E9008091E80083FF01C013DC1093E90065
:100BF0001F9108957F928F929F92AF92BF92CF9252
:100C0000DF92EF92FF920F931F93DF93CF9300D069
:100C10000F92CDB7DEB77C018DB69EB68091E8000D
:100C200083FFE9C0F701808190E02091A20130911B
:100C3000A3012817390709F0DEC080919F01833096
:100C400009F486C0843030F4813071F0823009F0CC
:100C5000D2C0B5C08A3009F49BC08B3009F485C07E
:100C6000893009F0C8C038C080919E01813A09F0EE
:100C7000C2C08091E800877F8093E8001B821A82BF
:100C80008091A0010091A1018983F70147818581AD
:100C9000968160E070E050E0C0D1402F4150F701F4
:100CA00025813681C701BE016F5F7F4F8E010E5FC8
:100CB0001F4F1EDB1092E9006A817B81F70185815D
:100CC00096819ADD8091E800982F9B7F9093E800B1
:100CD0008F778093E8008FC080919E01813209F068
:100CE0008AC0CDB6DEB6BDB6AD2C8091E800877F58
:100CF0008093E8000091A4011091A5018DB79EB7E3
:100D0000801B910B0FB6F8949EBF0FBE8DBFCDB662
:100D1000DEB60894C11CD11C7090A001C601B801B8
:100D200029DE8091E800982F9E7F9093E8008F77CE
:100D30008093E800C701672DA6019801F2DA9501BA
:100D4000832F922F0FB6F8949EBF0FBE8DBF53C056
:100D500080919E01813A09F04EC08091E800877F22
:100D60008093E800F70180853AC080919E0181322E
:100D700009F041C08091E800877F8093E80090915E
:100D8000A00181E0992309F480E0F701808732C057
:100D900080919E01813279F58091E800877F809370
:100DA000E8008091A0019091A101807036E09695B5
:100DB00087953A95E1F7F701928781871BC080916B
:100DC0009E01813AC1F48091E800877F8093E8001A
:100DD000F70181859285969587959695879580935D
:100DE000F1008091E800982F9E7F9093E8008F7724
:100DF0008093E80066DC0FB6F8949EBE0FBE8DBEF1
:100E00000F900F900F90CF91DF911F910F91FF9056
:100E1000EF90DF90CF90BF90AF909F908F907F909A
:100E200008950F931F93CF93DF93FC010896DC0185
:100E300085E0ED0119928A95E9F781E0808784EFDA
:100E400091E09287818701818481882311F016E0E7
:100E500001C012E082819381FCDB482F412B802F5F
:100E600061EC05DCDF91CF911F910F9108953F92C6
:100E70004F925F926F927F928F929F92AF92BF92AA
:100E8000CF92DF92EF92FF920F931F93DF93CF9356
:100E900000D000D0CDB7DEB77C014DB65EB68091F4
:100EA0009D01843009F088C0F70181818093E900B9
:100EB0008091E80085FF80C06DB6352C4781CDB6A6
:100EC000DEB6C41AD1080FB6F894DEBE0FBECDBE92
:100ED0000DB71EB70F5F1F4F902E812E19821B82F8
:100EE0001A82C80160E070E050E097D0C701BE01EF
:100EF0006F5F7F4F40E098018E010E5F1F4FF8D962
:100F0000782EF70181859285009759F081E090E075
:100F1000238534852115310511F080E090E05C01D6
:100F200002C0AA24BB24F701058116810115110511
:100F300099F0CA80DB80892D982DB801A60157D081
:100F400021E0009709F420E0C801692D782DA60161
:100F50002C835AD02C8101C020E08A819B8100978C
:100F600021F1772029F4222319F4A114B104E9F026
:100F7000F701818592859487838781818093E90039
:100F80008981882311F08093F1006A817B81892D0A
:100F9000982D40E050E0E5DB8091E800982F9E7F9F
:100FA0009093E8008F778093E800862D932D0FB6FD
:100FB000F8949EBF0FBE8DBF0FB6F8945EBE0FBEF5
:100FC0004DBE0F900F900F900F90CF91DF911F911A
:100FD0000F91FF90EF90DF90CF90BF90AF909F90D8
:100FE0008F907F906F905F904F903F900895FB019E
:100FF000DC0104C08D910190801921F441505040D2
:10100000C8F7881B990B0895FB01DC0102C0019011
:101010000D9241505040D8F70895DC0101C06D9306
:0C10200041505040E0F70895F894FFCFD5
:0E102C00000108000011010300000000000098
:00000001FF
